S00C00006C6564312E73726563B2
S113A00000E8FF1F79A3000073A3000077A30000FA
S113A010000000000000000000000000000000003C
S113A020000000000000000000000000DBA30000AE
S113A0300000000000000000E7A300008DA4000061
S113A04025A400002DA4000035A400003DA40000B8
S113A05085A4000085A4000085A4000085A4000058
S113A06045A400004DA4000055A400005DA4000018
S113A07065A400006DA4000075A4000085A4000080
S113A08085A4000085A4000085A4000085A4000028
S113A09085A4000085A4000085A400007DA4000020
S113A0A085A4000085A4000085A4000085A4000008
S113A0B085A4000085A4000085A4000085A40000F8
S113A0C063480168802252010A43026001688022C9
S113A0D092010A430260802040005E490A680243FC
S113A0E00A605D490A681043086020205B490A68D9
S113A0F002430A6080218905594A13680B4313609F
S113A100584A13681943116057490A681043086094
S113A1107047F8B504001AE08025AD05534801687E
S113A1202943016020265048016831430160FA2721
S113A1307F00380000F080F84A4801680D4305604C
S113A1404B4801680E430660380000F075F82000A3
S113A150441EC0B20028DFD1F1BDF8B50027390094
S113A1603C00C0B2FA2189004843AA21C90000F08A
S113A170A6F8050009E03000C0B200F03BF8F61C78
S113A1803000C0B26428F6DB641C2000290080B2D1
S113A19089B288420CD23E0004E03000C0B200F024
S113A1A008F8F61C3000C0B26428F6DB3E00E7E78E
S113A1B0F1BD70B504008025AD052C480168294324
S113A1C00160202628480168314301602000C0B2A4
S113A1D080B200F051F8264801680E430660214819
S113A1E001680D4305606420E4B2001B80B200F0F6
S113A1F043F870BD70B504008025AD0519480168A9
S113A2002943016020261A48016831430160200077
S113A210C0B280B200F030F8144801680D43056004
S113A220114801680E4306606420E4B2001B80B24A
S113A23000F022F870BD000000B5002101E000BF6D
S113A240491C020092B20B4B53439942F7D300BD11
S113A2503880044014C0044074D00440D4F00F404B
S113A26014F10F4004F10F40C4F00F4008F10F4007
S113A270C8F00F40B80B000000B5002101E000BF9A
S113A280491C020092B296239B0053439942F6D391
S113A29000BDF446002804D4494200F013F84042BB
S113A2A060474042002905D45FD000F00BF84042DB
S113A2B049426047494200F005F849426047034675
S113A2C00B43E6D40022030A8B420BD203098B42D0
S113A2D019D243088B422ED2411A00D20146524170
S113A2E010467047FF2209023FD012068B4205D365
S113A2F0121209028B4201D31212090203098B4282
S113A30019D300E0090AC3098B4201D3CB01C01A57
S113A310524183098B4201D38B01C01A5241430934
S113A3208B4201D34B01C01A524103098B4201D322
S113A3300B01C01A5241C3088B4201D3CB00C01A8F
S113A340524183088B4201D38B00C01A5241430807
S113A3508B4201D34B00C01A5241884200D3401AA9
S113A3605241CFD201461046704708B500F002F8BA
S113A37008BDFEE77047FEE772B604480449016071
S113A3800448804762B604480047000008ED00E036
S113A39000A000000DA4000019A4000000F00DF8B6
S113A3A0002801D000BF00BF00BF00BF002000BFD5
S113A3B000BF00F004F800F00CF80120704780B5ED
S113A3C0FFF77EFE0520FFF7A4FE0520FFF7C5FE7C
S113A3D0F8E780B500F002F801BDFEE7074638460D
S113A3E000F002F8FBE7FEE780B500BF00BF024AB9
S113A3F011001820ABBEFBE726000200FFFFFFFFA1
S113A400FFFFFFFFFFFFFFFFFEFFFFFF00200149EB
S113A410086070470081044000BF00BF00BF00BF58
S113A420FFF7BCFF0048004785A400000048004730
S113A43085A400000048004785A4000000480047A8
S113A44085A400000048004785A400000048004798
S113A45085A400000048004785A400000048004788
S113A46085A400000048004785A400000048004778
S113A47085A400000048004785A400000048004768
S111A48085A400000048004785A40000FEE704
S903A4193F
